{
  "contractName": "ExampleTokenCrowdsale",
  "abi": [
    {
      "constant": true,
      "inputs": [],
      "name": "rate",
      "outputs": [
        {
          "name": "",
          "type": "uint256"
        }
      ],
      "payable": false,
      "stateMutability": "view",
      "type": "function"
    },
    {
      "constant": true,
      "inputs": [],
      "name": "cap",
      "outputs": [
        {
          "name": "",
          "type": "uint256"
        }
      ],
      "payable": false,
      "stateMutability": "view",
      "type": "function"
    },
    {
      "constant": true,
      "inputs": [],
      "name": "weiRaised",
      "outputs": [
        {
          "name": "",
          "type": "uint256"
        }
      ],
      "payable": false,
      "stateMutability": "view",
      "type": "function"
    },
    {
      "constant": true,
      "inputs": [
        {
          "name": "",
          "type": "address"
        }
      ],
      "name": "contributions",
      "outputs": [
        {
          "name": "",
          "type": "uint256"
        }
      ],
      "payable": false,
      "stateMutability": "view",
      "type": "function"
    },
    {
      "constant": true,
      "inputs": [],
      "name": "capReached",
      "outputs": [
        {
          "name": "",
          "type": "bool"
        }
      ],
      "payable": false,
      "stateMutability": "view",
      "type": "function"
    },
    {
      "constant": true,
      "inputs": [],
      "name": "wallet",
      "outputs": [
        {
          "name": "",
          "type": "address"
        }
      ],
      "payable": false,
      "stateMutability": "view",
      "type": "function"
    },
    {
      "constant": true,
      "inputs": [],
      "name": "investorMinCap",
      "outputs": [
        {
          "name": "",
          "type": "uint256"
        }
      ],
      "payable": false,
      "stateMutability": "view",
      "type": "function"
    },
    {
      "constant": false,
      "inputs": [
        {
          "name": "_beneficiary",
          "type": "address"
        }
      ],
      "name": "buyTokens",
      "outputs": [],
      "payable": true,
      "stateMutability": "payable",
      "type": "function"
    },
    {
      "constant": true,
      "inputs": [],
      "name": "investorHardCap",
      "outputs": [
        {
          "name": "",
          "type": "uint256"
        }
      ],
      "payable": false,
      "stateMutability": "view",
      "type": "function"
    },
    {
      "constant": true,
      "inputs": [],
      "name": "token",
      "outputs": [
        {
          "name": "",
          "type": "address"
        }
      ],
      "payable": false,
      "stateMutability": "view",
      "type": "function"
    },
    {
      "inputs": [
        {
          "name": "_rate",
          "type": "uint256"
        },
        {
          "name": "_wallet",
          "type": "address"
        },
        {
          "name": "_token",
          "type": "address"
        },
        {
          "name": "_cap",
          "type": "uint256"
        }
      ],
      "payable": false,
      "stateMutability": "nonpayable",
      "type": "constructor"
    },
    {
      "payable": true,
      "stateMutability": "payable",
      "type": "fallback"
    },
    {
      "anonymous": false,
      "inputs": [
        {
          "indexed": true,
          "name": "purchaser",
          "type": "address"
        },
        {
          "indexed": true,
          "name": "beneficiary",
          "type": "address"
        },
        {
          "indexed": false,
          "name": "value",
          "type": "uint256"
        },
        {
          "indexed": false,
          "name": "amount",
          "type": "uint256"
        }
      ],
      "name": "TokenPurchase",
      "type": "event"
    }
  ],
  "bytecode": "0x6080604052674563918244f400006005556802b5e3af16b188000060065534801561002957600080fd5b506040516080806105de8339810160409081528151602083015191830151606090930151909290808484846000831161006157600080fd5b600160a060020a038216151561007657600080fd5b600160a060020a038116151561008b57600080fd5b60029290925560018054600160a060020a03928316600160a060020a0319918216179091556000805492909316911617815581116100c857600080fd5b60045550505050610500806100de6000396000f3006080604052600436106100a35763ffffffff7c01000000000000000000000000000000000000000000000000000000006000350416632c4e722e81146100ae578063355274ea146100d55780634042b66f146100ea57806342e94c90146100ff5780634f93594514610120578063521eb27314610149578063b25d7f541461017a578063ec8ac4d81461018f578063ed5db874146101a3578063fc0c546a146101b8575b6100ac336101cd565b005b3480156100ba57600080fd5b506100c361026f565b60408051918252519081900360200190f35b3480156100e157600080fd5b506100c3610275565b3480156100f657600080fd5b506100c361027b565b34801561010b57600080fd5b506100c3600160a060020a0360043516610281565b34801561012c57600080fd5b50610135610293565b604080519115158252519081900360200190f35b34801561015557600080fd5b5061015e61029e565b60408051600160a060020a039092168252519081900360200190f35b34801561018657600080fd5b506100c36102ad565b6100ac600160a060020a03600435166101cd565b3480156101af57600080fd5b506100c36102b3565b3480156101c457600080fd5b5061015e6102b9565b3460006101da83836102c8565b6101e382610342565b6003549091506101f9908363ffffffff61035f16565b600355610206838261036c565b60408051838152602081018390528151600160a060020a0386169233927f623b3804fa71d67900d064613da8f94b9617215ee90799290593e1745087ad18929081900390910190a36102588383610376565b61026061037a565b61026a8383610376565b505050565b60025481565b60045481565b60035481565b60076020526000908152604090205481565b600454600354101590565b600154600160a060020a031681565b60055481565b60065481565b600054600160a060020a031681565b6000806102d584846103b6565b600160a060020a0384166000908152600760205260409020549150610300828463ffffffff61035f16565b9050600554811015801561031657506006548111155b151561032157600080fd5b600160a060020a039093166000908152600760205260409020929092555050565b6000610359600254836103e190919063ffffffff16565b92915050565b8181018281101561035957fe5b610376828261040a565b5050565b600154604051600160a060020a03909116903480156108fc02916000818181858888f193505050501580156103b3573d6000803e3d6000fd5b50565b6103c082826104b3565b6004546003546103d6908363ffffffff61035f16565b111561037657600080fd5b60008215156103f257506000610359565b5081810281838281151561040257fe5b041461035957fe5b60008054604080517f40c10f19000000000000000000000000000000000000000000000000000000008152600160a060020a03868116600483015260248201869052915191909216926340c10f1992604480820193602093909283900390910190829087803b15801561047c57600080fd5b505af1158015610490573d6000803e3d6000fd5b505050506040513d60208110156104a657600080fd5b5051151561037657600080fd5b600160a060020a03821615156104c857600080fd5b80151561037657600080fd00a165627a7a72305820b0e63316b0e4c318fcc876d25ee3d4ff0eb5e9a5de1784200929347c67a10eba0029",
  "source": "pragma solidity ^0.4.25;\r\n\r\n\r\nimport \"openzeppelin-solidity/contracts/crowdsale/Crowdsale.sol\";\r\nimport \"openzeppelin-solidity/contracts/crowdsale/emission/MintedCrowdsale.sol\";\r\nimport \"openzeppelin-solidity/contracts/crowdsale/validation/CappedCrowdsale.sol\";\r\n\r\ncontract ExampleTokenCrowdsale is Crowdsale, MintedCrowdsale, CappedCrowdsale{\r\n\r\n\t\r\n\tuint256 public investorMinCap  =  5000000000000000000; \r\n\tuint256 public investorHardCap = 50000000000000000000;\r\n\r\n\tmapping(address => uint256) public contributions;\r\n\r\n\tconstructor(uint256 _rate,\r\n\t  address _wallet,\r\n\t  ERC20 _token,\r\n\t  uint256 _cap)\r\n\tCrowdsale(_rate, _wallet, _token)\r\n\tCappedCrowdsale(_cap)\r\n\tpublic{\r\n\t}\r\n\r\n\r\n  function _preValidatePurchase(\r\n    address _beneficiary,\r\n    uint256 _weiAmount\r\n  )\r\n    internal\r\n  {\r\n    super._preValidatePurchase(_beneficiary, _weiAmount);\r\n    uint256 _existingContribution = contributions[_beneficiary];\r\n    uint256 _newContribution = _existingContribution.add(_weiAmount);\r\n    require(_newContribution >= investorMinCap && _newContribution <= investorHardCap);\r\n\tcontributions[_beneficiary] = _newContribution;     \r\n  }\r\n  \r\n}",
  "sourcePath": "C:\\Users\\RajGanesh\\Desktop\\CappedToken\\contracts\\ExampleTokenCrowdsale.sol",
  "compiler": {
    "name": "solc",
    "version": "0.4.25+commit.59dbf8f1.Emscripten.clang"
  },
  "schemaVersion": "2.0.2",
  "updatedAt": "2019-03-14T03:18:33.294Z"
}