{
  "contractName": "KirthiTokenCrowdsale",
  "abi": [
    {
      "constant": true,
      "inputs": [],
      "name": "rate",
      "outputs": [
        {
          "name": "",
          "type": "uint256"
        }
      ],
      "payable": false,
      "stateMutability": "view",
      "type": "function"
    },
    {
      "constant": true,
      "inputs": [],
      "name": "cap",
      "outputs": [
        {
          "name": "",
          "type": "uint256"
        }
      ],
      "payable": false,
      "stateMutability": "view",
      "type": "function"
    },
    {
      "constant": true,
      "inputs": [],
      "name": "weiRaised",
      "outputs": [
        {
          "name": "",
          "type": "uint256"
        }
      ],
      "payable": false,
      "stateMutability": "view",
      "type": "function"
    },
    {
      "constant": true,
      "inputs": [
        {
          "name": "",
          "type": "address"
        }
      ],
      "name": "contributions",
      "outputs": [
        {
          "name": "",
          "type": "uint256"
        }
      ],
      "payable": false,
      "stateMutability": "view",
      "type": "function"
    },
    {
      "constant": true,
      "inputs": [],
      "name": "capReached",
      "outputs": [
        {
          "name": "",
          "type": "bool"
        }
      ],
      "payable": false,
      "stateMutability": "view",
      "type": "function"
    },
    {
      "constant": true,
      "inputs": [],
      "name": "wallet",
      "outputs": [
        {
          "name": "",
          "type": "address"
        }
      ],
      "payable": false,
      "stateMutability": "view",
      "type": "function"
    },
    {
      "constant": true,
      "inputs": [],
      "name": "investorMinCap",
      "outputs": [
        {
          "name": "",
          "type": "uint256"
        }
      ],
      "payable": false,
      "stateMutability": "view",
      "type": "function"
    },
    {
      "constant": false,
      "inputs": [
        {
          "name": "_beneficiary",
          "type": "address"
        }
      ],
      "name": "buyTokens",
      "outputs": [],
      "payable": true,
      "stateMutability": "payable",
      "type": "function"
    },
    {
      "constant": true,
      "inputs": [],
      "name": "investorHardCap",
      "outputs": [
        {
          "name": "",
          "type": "uint256"
        }
      ],
      "payable": false,
      "stateMutability": "view",
      "type": "function"
    },
    {
      "constant": true,
      "inputs": [],
      "name": "token",
      "outputs": [
        {
          "name": "",
          "type": "address"
        }
      ],
      "payable": false,
      "stateMutability": "view",
      "type": "function"
    },
    {
      "inputs": [
        {
          "name": "_rate",
          "type": "uint256"
        },
        {
          "name": "_wallet",
          "type": "address"
        },
        {
          "name": "_token",
          "type": "address"
        },
        {
          "name": "_cap",
          "type": "uint256"
        }
      ],
      "payable": false,
      "stateMutability": "nonpayable",
      "type": "constructor"
    },
    {
      "payable": true,
      "stateMutability": "payable",
      "type": "fallback"
    },
    {
      "anonymous": false,
      "inputs": [
        {
          "indexed": true,
          "name": "purchaser",
          "type": "address"
        },
        {
          "indexed": true,
          "name": "beneficiary",
          "type": "address"
        },
        {
          "indexed": false,
          "name": "value",
          "type": "uint256"
        },
        {
          "indexed": false,
          "name": "amount",
          "type": "uint256"
        }
      ],
      "name": "TokenPurchase",
      "type": "event"
    },
    {
      "constant": true,
      "inputs": [
        {
          "name": "_beneficiary",
          "type": "address"
        }
      ],
      "name": "getUserContribution",
      "outputs": [
        {
          "name": "",
          "type": "uint256"
        }
      ],
      "payable": false,
      "stateMutability": "view",
      "type": "function"
    }
  ],
  "bytecode": "0x6080604052671bc16d674ec800006005556802b5e3af16b188000060065534801561002957600080fd5b506040516080806106258339810160409081528151602083015191830151606090930151909290808484846000831161006157600080fd5b600160a060020a038216151561007657600080fd5b600160a060020a038116151561008b57600080fd5b60029290925560018054600160a060020a03928316600160a060020a0319918216179091556000805492909316911617815581116100c857600080fd5b60045550505050610547806100de6000396000f3006080604052600436106100ae5763ffffffff7c01000000000000000000000000000000000000000000000000000000006000350416632c4e722e81146100b9578063355274ea146100e05780634042b66f146100f557806342e94c901461010a5780634f9359451461012b578063521eb27314610154578063b25d7f5414610185578063bb8b2b471461019a578063ec8ac4d8146101bb578063ed5db874146101cf578063fc0c546a146101e4575b6100b7336101f9565b005b3480156100c557600080fd5b506100ce61029b565b60408051918252519081900360200190f35b3480156100ec57600080fd5b506100ce6102a1565b34801561010157600080fd5b506100ce6102a7565b34801561011657600080fd5b506100ce600160a060020a03600435166102ad565b34801561013757600080fd5b506101406102bf565b604080519115158252519081900360200190f35b34801561016057600080fd5b506101696102ca565b60408051600160a060020a039092168252519081900360200190f35b34801561019157600080fd5b506100ce6102d9565b3480156101a657600080fd5b506100ce600160a060020a03600435166102df565b6100b7600160a060020a03600435166101f9565b3480156101db57600080fd5b506100ce6102fa565b3480156101f057600080fd5b50610169610300565b346000610206838361030f565b61020f82610389565b600354909150610225908363ffffffff6103a616565b60035561023283826103b3565b60408051838152602081018390528151600160a060020a0386169233927f623b3804fa71d67900d064613da8f94b9617215ee90799290593e1745087ad18929081900390910190a361028483836103bd565b61028c6103c1565b61029683836103bd565b505050565b60025481565b60045481565b60035481565b60076020526000908152604090205481565b600454600354101590565b600154600160a060020a031681565b60055481565b600160a060020a031660009081526007602052604090205490565b60065481565b600054600160a060020a031681565b60008061031c84846103fd565b600160a060020a0384166000908152600760205260409020549150610347828463ffffffff6103a616565b9050600554811015801561035d57506006548111155b151561036857600080fd5b600160a060020a039093166000908152600760205260409020929092555050565b60006103a06002548361042890919063ffffffff16565b92915050565b818101828110156103a057fe5b6103bd8282610451565b5050565b600154604051600160a060020a03909116903480156108fc02916000818181858888f193505050501580156103fa573d6000803e3d6000fd5b50565b61040782826104fa565b60045460035461041d908363ffffffff6103a616565b11156103bd57600080fd5b6000821515610439575060006103a0565b5081810281838281151561044957fe5b04146103a057fe5b60008054604080517f40c10f19000000000000000000000000000000000000000000000000000000008152600160a060020a03868116600483015260248201869052915191909216926340c10f1992604480820193602093909283900390910190829087803b1580156104c357600080fd5b505af11580156104d7573d6000803e3d6000fd5b505050506040513d60208110156104ed57600080fd5b505115156103bd57600080fd5b600160a060020a038216151561050f57600080fd5b8015156103bd57600080fd00a165627a7a72305820f9bd8dd4ee3da3d35550c5eb8f1abb21c3f6afad24396fded4b1b34ed3e7bf000029",
  "source": "pragma solidity 0.4.25 ;\n\nimport \"openzeppelin-solidity/contracts/crowdsale/Crowdsale.sol\";\nimport \"openzeppelin-solidity/contracts/crowdsale/emission/MintedCrowdsale.sol\";\nimport \"openzeppelin-solidity/contracts/crowdsale/validation/CappedCrowdsale.sol\";\n\ncontract KirthiTokenCrowdsale is Crowdsale, MintedCrowdsale, CappedCrowdsale {\n  \n\tuint256 public investorMinCap = 2000000000000000000; //0.002 Ether\n\tuint256 public investorHardCap = 50000000000000000000; // 50 Ether\n\tmapping(address => uint256) public contributions;\n\n\n  constructor(\n  \tuint256 _rate, \n  \taddress _wallet, \n  \tERC20 _token,\n  \tuint256 _cap\n  \t) \n    \n    Crowdsale(_rate, _wallet, _token)\n    CappedCrowdsale(_cap)\n    public \n    {\n    \n    }\n\n    function getUserContribution(address _beneficiary)\n    \tpublic view returns (uint256)\n  \t\t{\n    \t\treturn contributions[_beneficiary];\n  \t\t}\n\n\t  function _preValidatePurchase(\n    \taddress _beneficiary,\n    \tuint256 _weiAmount\n  \t)\n    \tinternal\n  \t{\n    \tsuper._preValidatePurchase(_beneficiary, _weiAmount);\n\t\t\tuint256 _existingContribution = contributions[_beneficiary];\n\t\t\tuint256 _newContribution = _existingContribution.add(_weiAmount);\n\t\t\trequire(_newContribution >= investorMinCap && _newContribution <= investorHardCap);\n\t\t\tcontributions[_beneficiary] = _newContribution;\n\t\t}\n }\n",
  "sourcePath": "C:\\Users\\RajGanesh\\Desktop\\CappedToken\\contracts\\KirthiTokenCrowdsale.sol",
  "compiler": {
    "name": "solc",
    "version": "0.4.25+commit.59dbf8f1.Emscripten.clang"
  },
  "schemaVersion": "2.0.2",
  "updatedAt": "2019-03-14T02:17:39.416Z"
}